{"contracts/RestakingGuard.sol":{"RestakingGuard":{"abi":[{"inputs":[],"stateMutability":"nonpayable","type":"constructor"},{"inputs":[{"internalType":"bytes32","name":"id","type":"bytes32"}],"name":"AVSAlreadyByzantine","type":"error"},{"inputs":[{"internalType":"bytes32","name":"id","type":"bytes32"}],"name":"AVSAlreadyRegistered","type":"error"},{"inputs":[{"internalType":"bytes32","name":"id","type":"bytes32"}],"name":"AVSNotFound","type":"error"},{"inputs":[{"internalType":"bytes32","name":"validatorId","type":"bytes32"},{"internalType":"bytes32","name":"avsId","type":"bytes32"}],"name":"AlreadyAllocated","type":"error"},{"inputs":[{"internalType":"bytes32","name":"validatorId","type":"bytes32"}],"name":"InsufficientStake","type":"error"},{"inputs":[{"internalType":"bytes32","name":"validatorId","type":"bytes32"},{"internalType":"bytes32","name":"avsId","type":"bytes32"}],"name":"NotAllocated","type":"error"},{"inputs":[{"internalType":"uint256","name":"provided","type":"uint256"},{"internalType":"uint256","name":"max","type":"uint256"}],"name":"SlashExceedsMax","type":"error"},{"inputs":[],"name":"Unauthorized","type":"error"},{"inputs":[{"internalType":"bytes32","name":"id","type":"bytes32"}],"name":"ValidatorAlreadyRegistered","type":"error"},{"inputs":[{"internalType":"bytes32","name":"validatorId","type":"bytes32"},{"internalType":"bytes32","name":"avsId","type":"bytes32"}],"name":"ValidatorAlreadySlashedByAVS","type":"error"},{"inputs":[{"internalType":"bytes32","name":"id","type":"bytes32"}],"name":"ValidatorNotFound","type":"error"},{"inputs":[],"name":"ZeroStake","type":"error"},{"anonymous":false,"inputs":[{"indexed":true,"internalType":"bytes32","name":"avsId","type":"bytes32"},{"indexed":true,"internalType":"address","name":"reporter","type":"address"},{"indexed":false,"internalType":"uint256","name":"timestamp","type":"uint256"}],"name":"AVSFlaggedByzantine","type":"event"},{"anonymous":false,"inputs":[{"indexed":true,"internalType":"bytes32","name":"avsId","type":"bytes32"},{"indexed":false,"internalType":"string","name":"name","type":"string"},{"indexed":false,"internalType":"uint256","name":"tvl","type":"uint256"}],"name":"AVSRegistered","type":"event"},{"anonymous":false,"inputs":[{"indexed":true,"internalType":"bytes32","name":"secondaryAvsId","type":"bytes32"},{"indexed":false,"internalType":"uint256","name":"slashedCount","type":"uint256"},{"indexed":false,"internalType":"uint256","name":"totalCount","type":"uint256"},{"indexed":false,"internalType":"uint256","name":"riskBps","type":"uint256"},{"indexed":false,"internalType":"uint256","name":"timestamp","type":"uint256"}],"name":"CascadeRiskDetected","type":"event"},{"anonymous":false,"inputs":[{"indexed":true,"internalType":"address","name":"previousOwner","type":"address"},{"indexed":true,"internalType":"address","name":"newOwner","type":"address"}],"name":"OwnershipTransferred","type":"event"},{"anonymous":false,"inputs":[{"indexed":false,"internalType":"uint256","name":"newScore","type":"uint256"},{"indexed":false,"internalType":"uint256","name":"totalSlashedStake","type":"uint256"},{"indexed":false,"internalType":"uint256","name":"totalNetworkStake","type":"uint256"},{"indexed":false,"internalType":"uint256","name":"timestamp","type":"uint256"}],"name":"RiskScoreUpdated","type":"event"},{"anonymous":false,"inputs":[{"indexed":true,"internalType":"bytes32","name":"validatorId","type":"bytes32"},{"indexed":true,"internalType":"bytes32","name":"avsId","type":"bytes32"}],"name":"ValidatorAllocated","type":"event"},{"anonymous":false,"inputs":[{"indexed":true,"internalType":"bytes32","name":"validatorId","type":"bytes32"},{"indexed":true,"internalType":"bytes32","name":"avsId","type":"bytes32"}],"name":"ValidatorDeallocated","type":"event"},{"anonymous":false,"inputs":[{"indexed":true,"internalType":"bytes32","name":"validatorId","type":"bytes32"},{"indexed":false,"internalType":"uint256","name":"stake","type":"uint256"}],"name":"ValidatorRegistered","type":"event"},{"anonymous":false,"inputs":[{"indexed":true,"internalType":"bytes32","name":"validatorId","type":"bytes32"},{"indexed":true,"internalType":"bytes32","name":"byzantineAvsId","type":"bytes32"},{"indexed":false,"internalType":"uint256","name":"slashedAmount","type":"uint256"},{"indexed":false,"internalType":"uint256","name":"remainingStake","type":"uint256"},{"indexed":false,"internalType":"uint256","name":"timestamp","type":"uint256"}],"name":"ValidatorSlashed","type":"event"},{"inputs":[],"name":"BPS_DENOMINATOR","outputs":[{"internalType":"uint256","name":"","type":"uint256"}],"stateMutability":"view","type":"function"},{"inputs":[],"name":"CASCADE_RISK_WEIGHT","outputs":[{"internalType":"uint256","name":"","type":"uint256"}],"stateMutability":"view","type":"function"},{"inputs":[],"name":"CASCADE_THRESHOLD_BPS","outputs":[{"internalType":"uint256","name":"","type":"uint256"}],"stateMutability":"view","type":"function"},{"inputs":[],"name":"MAX_SLASH_BPS","outputs":[{"internalType":"uint256","name":"","type":"uint256"}],"stateMutability":"view","type":"function"},{"inputs":[],"name":"PRIMARY_RISK_WEIGHT","outputs":[{"internalType":"uint256","name":"","type":"uint256"}],"stateMutability":"view","type":"function"},{"inputs":[{"internalType":"uint256","name":"","type":"uint256"}],"name":"allAvsIds","outputs":[{"internalType":"bytes32","name":"","type":"bytes32"}],"stateMutability":"view","type":"function"},{"inputs":[{"internalType":"uint256","name":"","type":"uint256"}],"name":"allValidatorIds","outputs":[{"internalType":"bytes32","name":"","type":"bytes32"}],"stateMutability":"view","type":"function"},{"inputs":[{"internalType":"bytes32","name":"validatorId","type":"bytes32"},{"internalType":"bytes32","name":"avsId","type":"bytes32"}],"name":"allocateValidator","outputs":[],"stateMutability":"nonpayable","type":"function"},{"inputs":[],"name":"avsCount","outputs":[{"internalType":"uint256","name":"","type":"uint256"}],"stateMutability":"view","type":"function"},{"inputs":[{"internalType":"bytes32","name":"validatorId","type":"bytes32"},{"internalType":"bytes32","name":"avsId","type":"bytes32"}],"name":"deallocateValidator","outputs":[],"stateMutability":"nonpayable","type":"function"},{"inputs":[{"internalType":"bytes32","name":"avsId","type":"bytes32"},{"internalType":"uint256","name":"slashBps","type":"uint256"}],"name":"executeSlashing","outputs":[],"stateMutability":"nonpayable","type":"function"},{"inputs":[{"internalType":"bytes32","name":"avsId","type":"bytes32"}],"name":"getAVS","outputs":[{"internalType":"string","name":"name","type":"string"},{"internalType":"uint256","name":"totalTVL","type":"uint256"},{"internalType":"uint256","name":"validatorCount","type":"uint256"},{"internalType":"bool","name":"byzantine","type":"bool"},{"internalType":"bool","name":"cascadeRisk","type":"bool"},{"internalType":"bool","name":"active","type":"bool"}],"stateMutability":"view","type":"function"},{"inputs":[{"internalType":"bytes32","name":"avsId","type":"bytes32"}],"name":"getAVSValidators","outputs":[{"internalType":"bytes32[]","name":"","type":"bytes32[]"}],"stateMutability":"view","type":"function"},{"inputs":[],"name":"getAllAvsIds","outputs":[{"internalType":"bytes32[]","name":"","type":"bytes32[]"}],"stateMutability":"view","type":"function"},{"inputs":[],"name":"getAllValidatorIds","outputs":[{"internalType":"bytes32[]","name":"","type":"bytes32[]"}],"stateMutability":"view","type":"function"},{"inputs":[{"internalType":"bytes32","name":"avsId","type":"bytes32"}],"name":"getCascadeRisk","outputs":[{"internalType":"uint256","name":"riskBps","type":"uint256"}],"stateMutability":"view","type":"function"},{"inputs":[],"name":"getNetworkRiskScore","outputs":[{"internalType":"uint256","name":"","type":"uint256"}],"stateMutability":"view","type":"function"},{"inputs":[],"name":"getNetworkSnapshot","outputs":[{"internalType":"uint256","name":"_totalNetworkStake","type":"uint256"},{"internalType":"uint256","name":"_totalSlashedStake","type":"uint256"},{"internalType":"uint256","name":"_networkRiskScore","type":"uint256"},{"internalType":"uint256","name":"_validatorCount","type":"uint256"},{"internalType":"uint256","name":"_avsCount","type":"uint256"}],"stateMutability":"view","type":"function"},{"inputs":[{"internalType":"bytes32","name":"validatorId","type":"bytes32"}],"name":"getValidator","outputs":[{"internalType":"uint256","name":"totalStake","type":"uint256"},{"internalType":"uint256","name":"slashedStake","type":"uint256"},{"internalType":"uint256","name":"remainingStake","type":"uint256"},{"internalType":"uint8","name":"serviceCount","type":"uint8"},{"internalType":"bool","name":"active","type":"bool"}],"stateMutability":"view","type":"function"},{"inputs":[{"internalType":"bytes32","name":"validatorId","type":"bytes32"}],"name":"getValidatorServices","outputs":[{"internalType":"bytes32[]","name":"","type":"bytes32[]"}],"stateMutability":"view","type":"function"},{"inputs":[{"internalType":"bytes32","name":"validatorId","type":"bytes32"},{"internalType":"bytes32","name":"avsId","type":"bytes32"}],"name":"isAllocated","outputs":[{"internalType":"bool","name":"","type":"bool"}],"stateMutability":"view","type":"function"},{"inputs":[],"name":"networkRiskScore","outputs":[{"internalType":"uint256","name":"","type":"uint256"}],"stateMutability":"view","type":"function"},{"inputs":[],"name":"owner","outputs":[{"internalType":"address","name":"","type":"address"}],"stateMutability":"view","type":"function"},{"inputs":[{"internalType":"bytes32","name":"avsId","type":"bytes32"},{"internalType":"string","name":"name","type":"string"},{"internalType":"uint256","name":"tvl","type":"uint256"}],"name":"registerAVS","outputs":[],"stateMutability":"nonpayable","type":"function"},{"inputs":[{"internalType":"bytes32","name":"validatorId","type":"bytes32"},{"internalType":"uint256","name":"stake","type":"uint256"}],"name":"registerValidator","outputs":[],"stateMutability":"nonpayable","type":"function"},{"inputs":[{"internalType":"bytes32","name":"avsId","type":"bytes32"}],"name":"reportByzantine","outputs":[],"stateMutability":"nonpayable","type":"function"},{"inputs":[],"name":"totalNetworkStake","outputs":[{"internalType":"uint256","name":"","type":"uint256"}],"stateMutability":"view","type":"function"},{"inputs":[],"name":"totalSlashedStake","outputs":[{"internalType":"uint256","name":"","type":"uint256"}],"stateMutability":"view","type":"function"},{"inputs":[{"internalType":"address","name":"newOwner","type":"address"}],"name":"transferOwnership","outputs":[],"stateMutability":"nonpayable","type":"function"}],"evm":{"bytecode":{"linkReferences":{},"object":"608060405234801561001057600080fd5b50600080546001600160a01b03191633179055611b61806100326000396000f3fe608060405234801561001057600080fd5b50600436106101cf5760003560e01c80635a2a5b9a11610104578063a69145d8116100a2578063d5f20ff611610071578063d5f20ff6146103b7578063d8c29942146103f7578063e1a452181461040a578063f2fde38b1461041357600080fd5b8063a69145d814610368578063a6931e6d14610370578063b6ed1013146103a7578063c0b1d834146103af57600080fd5b806382596a4b116100de57806382596a4b1461030f5780638505ff1a146103225780638da5cb5b1461032a578063943843231461035557600080fd5b80635a2a5b9a146102fd5780635fab23a81461030657806364a26a981461026957600080fd5b806337924836116101715780634520f3321161014b5780634520f332146102a157806345e0d1fd146102b4578063535f1a82146102c7578063541d9e21146102da57600080fd5b806337924836146102725780633f9eb0711461028557806343d6f6121461028e57600080fd5b806315c45f1b116101ad57806315c45f1b146102185780632b672e9f1461023d5780632cd5f89f1461025457806331440f551461026957600080fd5b8063055036fa146101d457806314e357b4146101f25780631543d84a14610205575b600080fd5b6101dc610426565b6040516101e99190611730565b60405180910390f35b6101dc610200366004611774565b61047e565b6101dc610213366004611774565b610528565b61022b610226366004611774565b6105c4565b6040516101e99695949392919061178d565b61024660035481565b6040519081526020016101e9565b610267610262366004611808565b6106ea565b005b61024661138881565b61026761028036600461188a565b61081d565b61024660045481565b61024661029c366004611774565b61099d565b6102466102af366004611774565b6109be565b6102676102c2366004611774565b6109ce565b6102466102d5366004611774565b610ac9565b6102ed6102e836600461188a565b610bfb565b60405190151581526020016101e9565b61024660015481565b61024660025481565b61026761031d36600461188a565b610c22565b610246603781565b60005461033d906001600160a01b031681565b6040516001600160a01b0390911681526020016101e9565b61026761036336600461188a565b611089565b600354610246565b600154600254600354600754600454604080519586526020860194909452928401919091526060830152608082015260a0016101e9565b6101dc6111af565b610246602d81565b6103ca6103c5366004611774565b611205565b6040805195865260208601949094529284019190915260ff1660608301521515608082015260a0016101e9565b61026761040536600461188a565b611283565b61024661271081565b6102676104213660046118ac565b611581565b6060600880548060200260200160405190810160405280929190818152602001828054801561047457602002820191906000526020600020905b815481526020019060010190808311610460575b5050505050905090565b600081815260066020526040902060020154606090829062010000900460ff166104c35760405163152fe25960e01b8152600481018290526024015b60405180910390fd5b6000838152600660209081526040918290206003018054835181840281018401909452808452909183018282801561051a57602002820191906000526020600020905b815481526020019060010190808311610506575b505050505091505b50919050565b600081815260056020526040902060020154606090829060ff16610562576040516369899aaf60e01b8152600481018290526024016104ba565b6000838152600560209081526040918290206003018054835181840281018401909452808452909183018282801561051a5760200282019190600052602060002090815481526020019060010190808311610506575050505050915050919050565b600081815260066020526040812060020154606091908190819081908190879062010000900460ff1661060d5760405163152fe25960e01b8152600481018290526024016104ba565b600088815260066020526040902060018101546003820154600283015483548493929160ff808216926101008304821692620100009004909116908690610653906118dc565b80601f016020809104026020016040519081016040528092919081815260200182805461067f906118dc565b80156106cc5780601f106106a1576101008083540402835291602001916106cc565b820191906000526020600020905b8154815290600101906020018083116106af57829003601f168201915b50505050509550975097509750975097509750505091939550919395565b6000546001600160a01b03163314610714576040516282b42960e81b815260040160405180910390fd5b60008481526006602052604090206002015462010000900460ff161561075057604051632e13fac160e11b8152600481018590526024016104ba565b6000848152600660205260409020610769838583611977565b50600084815260066020526040812060018101839055600201805462ff0000191662010000179055600480549161079f83611a4e565b9091555050600880546001810182556000919091527ff3f7a9fe364faab93b216da50a3214154f22a0a2b415b23a84c8169e8b636ee30184905560405184907f4b265e9c67df76980f0a55e8016e34a525faf4a1c1004d8f504b097beb8555779061080f90869086908690611a67565b60405180910390a250505050565b6000546001600160a01b03163314610847576040516282b42960e81b815260040160405180910390fd5b600082815260056020526040902060020154829060ff1661087e576040516369899aaf60e01b8152600481018290526024016104ba565b600082815260066020526040902060020154829062010000900460ff166108bb5760405163152fe25960e01b8152600481018290526024016104ba565b600083815260066020908152604080832087845260040190915290205460ff16156109035760405163e8f2bed160e01b815260048101859052602481018490526044016104ba565b6000838152600660209081526040808320600380820180548a875260058085018752858820829055600180830184559288528688209091018b90558a875260049093018552838620805460ff1916821790559184528285200180549182018155845291832090910185905551849186917fd30b0495c4f5dd9bdd96c689d8564cb151ba2097e5ede776f6eccbd81318279a9190a350505050565b600781815481106109ad57600080fd5b600091825260209091200154905081565b600881815481106109ad57600080fd5b6000546001600160a01b031633146109f8576040516282b42960e81b815260040160405180910390fd5b600081815260066020526040902060020154819062010000900460ff16610a355760405163152fe25960e01b8152600481018290526024016104ba565b60008281526006602052604090206002015460ff1615610a6b57604051630f9d4e8160e11b8152600481018390526024016104ba565b60008281526006602052604090819020600201805460ff1916600117905551339083907fec65ce00fb66a37ac771592ac0fcad21bdd8f02d0a1765eb49c925b4e70c202390610abd9042815260200190565b60405180910390a35050565b600081815260066020526040812060020154829062010000900460ff16610b065760405163152fe25960e01b8152600481018290526024016104ba565b600083815260066020908152604080832060030180548251818502810185019093528083529192909190830182828015610b5f57602002820191906000526020600020905b815481526020019060010190808311610b4b575b5050505050905060008151905080600003610b7f57600093505050610522565b6000805b82811015610bd957600060056000868481518110610ba357610ba3611aa0565b60200260200101518152602001908152602001600020600101541115610bd15781610bcd81611a4e565b9250505b600101610b83565b5081610be761271083611ab6565b610bf19190611acd565b9695505050505050565b600081815260066020908152604080832085845260040190915290205460ff165b92915050565b6000546001600160a01b03163314610c4c576040516282b42960e81b815260040160405180910390fd5b600082815260066020526040902060020154829062010000900460ff16610c895760405163152fe25960e01b8152600481018290526024016104ba565b60008381526006602052604090206002015460ff16610cbe5760405163152fe25960e01b8152600481018490526024016104ba565b611388821115610cec576040516376f5e03d60e01b81526004810183905261138860248201526044016104ba565b600083815260066020908152604080832060030180548251818502810185019093528083529192909190830182828015610d4557602002820191906000526020600020905b815481526020019060010190808311610d31575b505083519394506000925050505b81811015610e99576000838281518110610d6f57610d6f611aa0565b60209081029190910181015160008181526005835260408082208b83526004810190945290205490925060ff1615610da8575050610e91565b60018101548154600091610dbb91611aef565b905080600003610dcd57505050610e91565b6000612710610ddc8a84611ab6565b610de69190611acd565b905080836001016000828254610dfc9190611b02565b909155505060008a81526004840160205260408120805460ff1916600117905560028054839290610e2e908490611b02565b9250508190555089847f9763637c88b5fc32aea772c1c273740b11301698154629623e16cdf052d45ac88386600101548760000154610e6d9190611aef565b604080519283526020830191909152429082015260600160405180910390a3505050505b600101610d53565b506008546000805b8281101561107657600060088281548110610ebe57610ebe611aa0565b90600052602060002001549050888103610ed8575061106e565b60008181526006602052604090206002015462010000900460ff16610efd575061106e565b600081815260066020908152604080832060030180548251818502810185019093528083529192909190830182828015610f5657602002820191906000526020600020905b815481526020019060010190808311610f42575b5050505050905060008151905080600003610f735750505061106e565b6000805b82811015610fcd57600060056000868481518110610f9757610f97611aa0565b60200260200101518152602001908152602001600020600101541115610fc55781610fc181611a4e565b9250505b600101610f77565b50600082610fdd61271084611ab6565b610fe79190611acd565b90506113888110611068576000858152600660205260409020600201805461ff0019166101001790558661101a81611a4e565b60408051858152602081018790529081018490524260608201529098508691507fc824adf9ea2251e9841ea40e4edeeca31b07972da933f89ce85d88100390db589060800160405180910390a25b50505050505b600101610ea1565b506110808161162c565b50505050505050565b6000546001600160a01b031633146110b3576040516282b42960e81b815260040160405180910390fd5b60008281526005602052604090206002015460ff16156110e9576040516338a14a4160e01b8152600481018390526024016104ba565b8060000361110a5760405163150a67e960e01b815260040160405180910390fd5b6000828152600560205260408120828155600201805460ff19166001908117909155805483929061113c908490611b02565b9091555050600780546001810182556000919091527fa66cc928b5edb82af9bd49922954155ab7b0942694bea4ce44661d9a8736c6880182905560405181815282907fd70bfaec5018306ad990042454ec4743575a7aacb7f55bbfa563e7c4f26011969060200160405180910390a25050565b606060078054806020026020016040519081016040528092919081815260200182805480156104745760200282019190600052602060002090815481526020019060010190808311610460575050505050905090565b6000818152600560205260408120600201548190819081908190869060ff16611244576040516369899aaf60e01b8152600481018290526024016104ba565b6000878152600560205260409020805460018201546112638183611aef565b6003840154600290940154929b919a50985091965060ff16945092505050565b6000546001600160a01b031633146112ad576040516282b42960e81b815260040160405180910390fd5b600082815260056020526040902060020154829060ff166112e4576040516369899aaf60e01b8152600481018290526024016104ba565b600082815260066020526040902060020154829062010000900460ff166113215760405163152fe25960e01b8152600481018290526024016104ba565b600083815260066020908152604080832087845260040190915290205460ff166113685760405163d698a00f60e01b815260048101859052602481018490526044016104ba565b60008381526006602081815260408084208885526005810183529084205487855292909152600301549091906113a090600190611aef565b905080821461142e5760008581526006602052604081206003018054839081106113cc576113cc611aa0565b906000526020600020015490508060066000888152602001908152602001600020600301848154811061140157611401611aa0565b60009182526020808320909101929092558781526006825260408082209382526005909301909152208290555b600085815260066020526040902060030180548061144e5761144e611b15565b600082815260208082206000199084018101839055909201909255868252600681526040808320898452600481018352818420805460ff19169055600590810183528184208490559091528120600301905b815481101561154a57868282815481106114bc576114bc611aa0565b90600052602060002001540361154257815482906114dc90600190611aef565b815481106114ec576114ec611aa0565b906000526020600020015482828154811061150957611509611aa0565b90600052602060002001819055508180548061152757611527611b15565b6001900381819060005260206000200160009055905561154a565b6001016114a0565b50604051869088907f4f77c65010208e32e4797a23b748046de00da809a1487c62a0c40a8dddbd11ee90600090a350505050505050565b6000546001600160a01b031633146115ab576040516282b42960e81b815260040160405180910390fd5b6001600160a01b0381166115d1576040516282b42960e81b815260040160405180910390fd5b600080546040516001600160a01b03808516939216917f8be0079c531659141344cd1fd0a4f28419497f9722a3daafe3b4186f6b6457e091a3600080546001600160a01b0319166001600160a01b0392909216919091179055565b60015460000361163e57506000600355565b6000600160045411611651576001611660565b60016004546116609190611aef565b9050600060015460376002546116769190611ab6565b611681906064611ab6565b61168b9190611acd565b905060008261169b602d86611ab6565b6116a6906064611ab6565b6116b09190611acd565b9050600060646116c08385611b02565b6116ca9190611acd565b905060638111156116d9575060635b60038190556002546001546040805184815260208101939093528201524260608201527fcc94640c467789ae6449bef07e54d9b4d49015124ca2a99f5cd21150ed56afe29060800160405180910390a15050505050565b6020808252825182820181905260009190848201906040850190845b818110156117685783518352928401929184019160010161174c565b50909695505050505050565b60006020828403121561178657600080fd5b5035919050565b60c08152600087518060c084015260005b818110156117bb576020818b0181015160e086840101520161179e565b50600060e0828501015260e0601f19601f8301168401019150508660208301528560408301526117ef606083018615159052565b921515608082015290151560a090910152949350505050565b6000806000806060858703121561181e57600080fd5b84359350602085013567ffffffffffffffff8082111561183d57600080fd5b818701915087601f83011261185157600080fd5b81358181111561186057600080fd5b88602082850101111561187257600080fd5b95986020929092019750949560400135945092505050565b6000806040838503121561189d57600080fd5b50508035926020909101359150565b6000602082840312156118be57600080fd5b81356001600160a01b03811681146118d557600080fd5b9392505050565b600181811c908216806118f057607f821691505b60208210810361052257634e487b7160e01b600052602260045260246000fd5b634e487b7160e01b600052604160045260246000fd5b601f821115611972576000816000526020600020601f850160051c8101602086101561194f5750805b601f850160051c820191505b8181101561196e5782815560010161195b565b5050505b505050565b67ffffffffffffffff83111561198f5761198f611910565b6119a38361199d83546118dc565b83611926565b6000601f8411600181146119d757600085156119bf5750838201355b600019600387901b1c1916600186901b178355611a31565b600083815260209020601f19861690835b82811015611a0857868501358255602094850194600190920191016119e8565b5086821015611a255760001960f88860031b161c19848701351681555b505060018560011b0183555b5050505050565b634e487b7160e01b600052601160045260246000fd5b600060018201611a6057611a60611a38565b5060010190565b604081528260408201528284606083013760006060848301015260006060601f19601f8601168301019050826020830152949350505050565b634e487b7160e01b600052603260045260246000fd5b8082028115828204841417610c1c57610c1c611a38565b600082611aea57634e487b7160e01b600052601260045260246000fd5b500490565b81810381811115610c1c57610c1c611a38565b80820180821115610c1c57610c1c611a38565b634e487b7160e01b600052603160045260246000fdfea2646970667358221220e27c843aebc29c220fae1a441cb9341ead58586ee7dd69f0081415f99a6b8ef164736f6c63430008180033","opcodes":"PUSH1 0x80 PUSH1 0x40 MSTORE CALLVALUE DUP1 ISZERO PUSH2 0x10 JUMPI PUSH1 0x0 DUP1 REVERT JUMPDEST POP PUSH1 0x0 DUP1 SLOAD PUSH1 0x1 PUSH1 0x1 PUSH1 0xA0 SHL SUB NOT AND CALLER OR SWAP1 SSTORE PUSH2 0x1B61 DUP1 PUSH2 0x32 PUSH1 0x0 CODECOPY PUSH1 0x0 RETURN INVALID PUSH1 0x80 PUSH1 0x40 MSTORE CALLVALUE DUP1 ISZERO PUSH2 0x10 JUMPI PUSH1 0x0 DUP1 REVERT JUMPDEST POP PUSH1 0x4 CALLDATASIZE LT PUSH2 0x1CF JUMPI PUSH1 0x0 CALLDATALOAD PUSH1 0xE0 SHR DUP1 PUSH4 0x5A2A5B9A GT PUSH2 0x104 JUMPI DUP1 PUSH4 0xA69145D8 GT PUSH2 0xA2 JUMPI DUP1 PUSH4 0xD5F20FF6 GT PUSH2 0x71 JUMPI DUP1 PUSH4 0xD5F20FF6 EQ PUSH2 0x3B7 JUMPI DUP1 PUSH4 0xD8C29942 EQ PUSH2 0x3F7 JUMPI DUP1 PUSH4 0xE1A45218 EQ PUSH2 0x40A JUMPI DUP1 PUSH4 0xF2FDE38B EQ PUSH2 0x413 JUMPI PUSH1 0x0 DUP1 REVERT JUMPDEST DUP1 PUSH4 0xA69145D8 EQ PUSH2 0x368 JUMPI DUP1 PUSH4 0xA6931E6D EQ PUSH2 0x370 JUMPI DUP1 PUSH4 0xB6ED1013 EQ PUSH2 0x3A7 JUMPI DUP1 PUSH4 0xC0B1D834 EQ PUSH2 0x3AF JUMPI PUSH1 0x0 DUP1 REVERT JUMPDEST DUP1 PUSH4 0x82596A4B GT PUSH2 0xDE JUMPI DUP1 PUSH4 0x82596A4B EQ PUSH2 0x30F JUMPI DUP1 PUSH4 0x8505FF1A EQ PUSH2 0x322 JUMPI DUP1 PUSH4 0x8DA5CB5B EQ PUSH2 0x32A JUMPI DUP1 PUSH4 0x94384323 EQ PUSH2 0x355 JUMPI PUSH1 0x0 DUP1 REVERT JUMPDEST DUP1 PUSH4 0x5A2A5B9A EQ PUSH2 0x2FD JUMPI DUP1 PUSH4 0x5FAB23A8 EQ PUSH2 0x306 JUMPI DUP1 PUSH4 0x64A26A98 EQ PUSH2 0x269 JUMPI PUSH1 0x0 DUP1 REVERT JUMPDEST DUP1 PUSH4 0x37924836 GT PUSH2 0x171 JUMPI DUP1 PUSH4 0x4520F332 GT PUSH2 0x14B JUMPI DUP1 PUSH4 0x4520F332 EQ PUSH2 0x2A1 JUMPI DUP1 PUSH4 0x45E0D1FD EQ PUSH2 0x2B4 JUMPI DUP1 PUSH4 0x535F1A82 EQ PUSH2 0x2C7 JUMPI DUP1 PUSH4 0x541D9E21 EQ PUSH2 0x2DA JUMPI PUSH1 0x0 DUP1 REVERT JUMPDEST DUP1 PUSH4 0x37924836 EQ PUSH2 0x272 JUMPI DUP1 PUSH4 0x3F9EB071 EQ PUSH2 0x285 JUMPI DUP1 PUSH4 0x43D6F612 EQ PUSH2 0x28E JUMPI PUSH1 0x0 DUP1 REVERT JUMPDEST DUP1 PUSH4 0x15C45F1B GT PUSH2 0x1AD JUMPI DUP1 PUSH4 0x15C45F1B EQ PUSH2 0x218 JUMPI DUP1 PUSH4 0x2B672E9F EQ PUSH2 0x23D JUMPI DUP1 PUSH4 0x2CD5F89F EQ PUSH2 0x254 JUMPI DUP1 PUSH4 0x31440F55 EQ PUSH2 0x269 JUMPI PUSH1 0x0 DUP1 REVERT JUMPDEST DUP1 PUSH4 0x55036FA EQ PUSH2 0x1D4 JUMPI DUP1 PUSH4 0x14E357B4 EQ PUSH2 0x1F2 JUMPI DUP1 PUSH4 0x1543D84A EQ PUSH2 0x205 JUMPI JUMPDEST PUSH1 0x0 DUP1 REVERT JUMPDEST PUSH2 0x1DC PUSH2 0x426 JUMP JUMPDEST PUSH1 0x40 MLOAD PUSH2 0x1E9 SWAP2 SWAP1 PUSH2 0x1730 JUMP JUMPDEST PUSH1 0x40 MLOAD DUP1 SWAP2 SUB SWAP1 RETURN JUMPDEST PUSH2 0x1DC PUSH2 0x200 CALLDATASIZE PUSH1 0x4 PUSH2 0x1774 JUMP JUMPDEST PUSH2 0x47E JUMP JUMPDEST PUSH2 0x1DC PUSH2 0x213 CALLDATASIZE PUSH1 0x4 PUSH2 0x1774 JUMP JUMPDEST PUSH2 0x528 JUMP JUMPDEST PUSH2 0x22B PUSH2 0x226 CALLDATASIZE PUSH1 0x4 PUSH2 0x1774 JUMP JUMPDEST PUSH2 0x5C4 JUMP JUMPDEST PUSH1 0x40 MLOAD PUSH2 0x1E9 SWAP7 SWAP6 SWAP5 SWAP4 SWAP3 SWAP2 SWAP1 PUSH2 0x178D JUMP JUMPDEST PUSH2 0x246 PUSH1 0x3 SLOAD DUP2 JUMP JUMPDEST PUSH1 0x40 MLOAD SWAP1 DUP2 MSTORE PUSH1 0x20 ADD PUSH2 0x1E9 JUMP JUMPDEST PUSH2 0x267 PUSH2 0x262 CALLDATASIZE PUSH1 0x4 PUSH2 0x1808 JUMP JUMPDEST PUSH2 0x6EA JUMP JUMPDEST STOP JUMPDEST PUSH2 0x246 PUSH2 0x1388 DUP2 JUMP JUMPDEST PUSH2 0x267 PUSH2 0x280 CALLDATASIZE PUSH1 0x4 PUSH2 0x188A JUMP JUMPDEST PUSH2 0x81D JUMP JUMPDEST PUSH2 0x246 PUSH1 0x4 SLOAD DUP2 JUMP JUMPDEST PUSH2 0x246 PUSH2 0x29C CALLDATASIZE PUSH1 0x4 PUSH2 0x1774 JUMP JUMPDEST PUSH2 0x99D JUMP JUMPDEST PUSH2 0x246 PUSH2 0x2AF CALLDATASIZE PUSH1 0x4 PUSH2 0x1774 JUMP JUMPDEST PUSH2 0x9BE JUMP JUMPDEST PUSH2 0x267 PUSH2 0x2C2 CALLDATASIZE PUSH1 0x4 PUSH2 0x1774 JUMP JUMPDEST PUSH2 0x9CE JUMP JUMPDEST PUSH2 0x246 PUSH2 0x2D5 CALLDATASIZE PUSH1 0x4 PUSH2 0x1774 JUMP JUMPDEST PUSH2 0xAC9 JUMP JUMPDEST PUSH2 0x2ED PUSH2 0x2E8 CALLDATASIZE PUSH1 0x4 PUSH2 0x188A JUMP JUMPDEST PUSH2 0xBFB JUMP JUMPDEST PUSH1 0x40 MLOAD SWAP1 ISZERO ISZERO DUP2 MSTORE PUSH1 0x20 ADD PUSH2 0x1E9 JUMP JUMPDEST PUSH2 0x246 PUSH1 0x1 SLOAD DUP2 JUMP JUMPDEST PUSH2 0x246 PUSH1 0x2 SLOAD DUP2 JUMP JUMPDEST PUSH2 0x267 PUSH2 0x31D CALLDATASIZE PUSH1 0x4 PUSH2 0x188A JUMP JUMPDEST PUSH2 0xC22 JUMP JUMPDEST PUSH2 0x246 PUSH1 0x37 DUP2 JUMP JUMPDEST PUSH1 0x0 SLOAD PUSH2 0x33D SWAP1 PUSH1 0x1 PUSH1 0x1 PUSH1 0xA0 SHL SUB AND DUP2 JUMP JUMPDEST PUSH1 0x40 MLOAD PUSH1 0x1 PUSH1 0x1 PUSH1 0xA0 SHL SUB SWAP1 SWAP2 AND DUP2 MSTORE PUSH1 0x20 ADD PUSH2 0x1E9 JUMP JUMPDEST PUSH2 0x267 PUSH2 0x363 CALLDATASIZE PUSH1 0x4 PUSH2 0x188A JUMP JUMPDEST PUSH2 0x1089 JUMP JUMPDEST PUSH1 0x3 SLOAD PUSH2 0x246 JUMP JUMPDEST PUSH1 0x1 SLOAD PUSH1 0x2 SLOAD PUSH1 0x3 SLOAD PUSH1 0x7 SLOAD PUSH1 0x4 SLOAD PUSH1 0x40 DUP1 MLOAD SWAP6 DUP7 MSTORE PUSH1 0x20 DUP7 ADD SWAP5 SWAP1 SWAP5 MSTORE SWAP3 DUP5 ADD SWAP2 SWAP1 SWAP2 MSTORE PUSH1 0x60 DUP4 ADD MSTORE PUSH1 0x80 DUP3 ADD MSTORE PUSH1 0xA0 ADD PUSH2 0x1E9 JUMP JUMPDEST PUSH2 0x1DC PUSH2 0x11AF JUMP JUMPDEST PUSH2 0x246 PUSH1 0x2D DUP2 JUMP JUMPDEST PUSH2 0x3CA PUSH2 0x3C5 CALLDATASIZE PUSH1 0x4 PUSH2 0x1774 JUMP JUMPDEST PUSH2 0x1205 JUMP JUMPDEST PUSH1 0x40 DUP1 MLOAD SWAP6 DUP7 MSTORE PUSH1 0x20 DUP7 ADD SWAP5 SWAP1 SWAP5 MSTORE SWAP3 DUP5 ADD SWAP2 SWAP1 SWAP2 MSTORE PUSH1 0xFF AND PUSH1 0x60 DUP4 ADD MSTORE ISZERO ISZERO PUSH1 0x80 DUP3 ADD MSTORE PUSH1 0xA0 ADD PUSH2 0x1E9 JUMP JUMPDEST PUSH2 0x267 PUSH2 0x405 CALLDATASIZE PUSH1 0x4 PUSH2 0x188A JUMP JUMPDEST PUSH2 0x1283 JUMP JUMPDEST PUSH2 0x246 PUSH2 0x2710 DUP2 JUMP JUMPDEST PUSH2 0x267 PUSH2 0x421 CALLDATASIZE PUSH1 0x4 PUSH2 0x18AC JUMP JUMPDEST PUSH2 0x1581 JUMP JUMPDEST PUSH1 0x60 PUSH1 0x8 DUP1 SLOAD DUP1 PUSH1 0x20 MUL PUSH1 0x20 ADD PUSH1 0x40 MLOAD SWAP1 DUP2 ADD PUSH1 0x40 MSTORE DUP1 SWAP3 SWAP2 SWAP1 DUP2 DUP2 MSTORE PUSH1 0x20 ADD DUP3 DUP1 SLOAD DUP1 ISZERO PUSH2 0x474 JUMPI PUSH1 0x20 MUL DUP3 ADD SWAP2 SWAP1 PUSH1 0x0 MSTORE PUSH1 0x20 PUSH1 0x0 KECCAK256 SWAP1 JUMPDEST DUP2 SLOAD DUP2 MSTORE PUSH1 0x20 ADD SWAP1 PUSH1 0x1 ADD SWAP1 DUP1 DUP4 GT PUSH2 0x460 JUMPI JUMPDEST POP POP POP POP POP SWAP1 POP SWAP1 JUMP JUMPDEST PUSH1 0x0 DUP2 DUP2 MSTORE PUSH1 0x6 PUSH1 0x20 MSTORE PUSH1 0x40 SWAP1 KECCAK256 PUSH1 0x2 ADD SLOAD PUSH1 0x60 SWAP1 DUP3 SWAP1 PUSH3 0x10000 SWAP1 DIV PUSH1 0xFF AND PUSH2 0x4C3 JUMPI PUSH1 0x40 MLOAD PUSH4 0x152FE259 PUSH1 0xE0 SHL DUP2 MSTORE PUSH1 0x4 DUP2 ADD DUP3 SWAP1 MSTORE PUSH1 0x24 ADD JUMPDEST PUSH1 0x40 MLOAD DUP1 SWAP2 SUB SWAP1 REVERT JUMPDEST PUSH1 0x0 DUP4 DUP2 MSTORE PUSH1 0x6 PUSH1 0x20 SWAP1 DUP2 MSTORE PUSH1 0x40 SWAP2 DUP3 SWAP1 KECCAK256 PUSH1 0x3 ADD DUP1 SLOAD DUP4 MLOAD DUP2 DUP5 MUL DUP2 ADD DUP5 ADD SWAP1 SWAP5 MSTORE DUP1 DUP5 MSTORE SWAP1 SWAP2 DUP4 ADD DUP3 DUP3 DUP1 ISZERO PUSH2 0x51A JUMPI PUSH1 0x20 MUL DUP3 ADD SWAP2 SWAP1 PUSH1 0x0 MSTORE PUSH1 0x20 PUSH1 0x0 KECCAK256 SWAP1 JUMPDEST DUP2 SLOAD DUP2 MSTORE PUSH1 0x20 ADD SWAP1 PUSH1 0x1 ADD SWAP1 DUP1 DUP4 GT PUSH2 0x506 JUMPI JUMPDEST POP POP POP POP POP SWAP2 POP JUMPDEST POP SWAP2 SWAP1 POP JUMP JUMPDEST PUSH1 0x0 DUP2 DUP2 MSTORE PUSH1 0x5 PUSH1 0x20 MSTORE PUSH1 0x40 SWAP1 KECCAK256 PUSH1 0x2 ADD SLOAD PUSH1 0x60 SWAP1 DUP3 SWAP1 PUSH1 0xFF AND PUSH2 0x562 JUMPI PUSH1 0x40 MLOAD PUSH4 0x69899AAF PUSH1 0xE0 SHL DUP2 MSTORE PUSH1 0x4 DUP2 ADD DUP3 SWAP1 MSTORE PUSH1 0x24 ADD PUSH2 0x4BA JUMP JUMPDEST PUSH1 0x0 DUP4 DUP2 MSTORE PUSH1 0x5 PUSH1 0x20 SWAP1 DUP2 MSTORE PUSH1 0x40 SWAP2 DUP3 SWAP1 KECCAK256 PUSH1 0x3 ADD DUP1 SLOAD DUP4 MLOAD DUP2 DUP5 MUL DUP2 ADD DUP5 ADD SWAP1 SWAP5 MSTORE DUP1 DUP5 MSTORE SWAP1 SWAP2 DUP4 ADD DUP3 DUP3 DUP1 ISZERO PUSH2 0x51A JUMPI PUSH1 0x20 MUL DUP3 ADD SWAP2 SWAP1 PUSH1 0x0 MSTORE PUSH1 0x20 PUSH1 0x0 KECCAK256 SWAP1 DUP2 SLOAD DUP2 MSTORE PUSH1 0x20 ADD SWAP1 PUSH1 0x1 ADD SWAP1 DUP1 DUP4 GT PUSH2 0x506 JUMPI POP POP POP POP POP SWAP2 POP POP SWAP2 SWAP1 POP JUMP JUMPDEST PUSH1 0x0 DUP2 DUP2 MSTORE PUSH1 0x6 PUSH1 0x20 MSTORE PUSH1 0x40 DUP2 KECCAK256 PUSH1 0x2 ADD SLOAD PUSH1 0x60 SWAP2 SWAP1 DUP2 SWAP1 DUP2 SWAP1 DUP2 SWAP1 DUP2 SWAP1 DUP8 SWAP1 PUSH3 0x10000 SWAP1 DIV PUSH1 0xFF AND PUSH2 0x60D JUMPI PUSH1 0x40 MLOAD PUSH4 0x152FE259 PUSH1 0xE0 SHL DUP2 MSTORE PUSH1 0x4 DUP2 ADD DUP3 SWAP1 MSTORE PUSH1 0x24 ADD PUSH2 0x4BA JUMP JUMPDEST PUSH1 0x0 DUP9 DUP2 MSTORE PUSH1 0x6 PUSH1 0x20 MSTORE PUSH1 0x40 SWAP1 KECCAK256 PUSH1 0x1 DUP2 ADD SLOAD PUSH1 0x3 DUP3 ADD SLOAD PUSH1 0x2 DUP4 ADD SLOAD DUP4 SLOAD DUP5 SWAP4 SWAP3 SWAP2 PUSH1 0xFF DUP1 DUP3 AND SWAP3 PUSH2 0x100 DUP4 DIV DUP3 AND SWAP3 PUSH3 0x10000 SWAP1 DIV SWAP1 SWAP2 AND SWAP1 DUP7 SWAP1 PUSH2 0x653 SWAP1 PUSH2 0x18DC JUMP JUMPDEST DUP1 PUSH1 0x1F ADD PUSH1 0x20 DUP1 SWAP2 DIV MUL PUSH1 0x20 ADD PUSH1 0x40 MLOAD SWAP1 DUP2 ADD PUSH1 0x40 MSTORE DUP1 SWAP3 SWAP2 SWAP1 DUP2 DUP2 MSTORE PUSH1 0x20 ADD DUP3 DUP1 SLOAD PUSH2 0x67F SWAP1 PUSH2 0x18DC JUMP JUMPDEST DUP1 ISZERO PUSH2 0x6CC JUMPI DUP1 PUSH1 0x1F LT PUSH2 0x6A1 JUMPI PUSH2 0x100 DUP1 DUP4 SLOAD DIV MUL DUP4 MSTORE SWAP2 PUSH1 0x20 ADD SWAP2 PUSH2 0x6CC JUMP JUMPDEST DUP3 ADD SWAP2 SWAP1 PUSH1 0x0 MSTORE PUSH1 0x20 PUSH1 0x0 KECCAK256 SWAP1 JUMPDEST DUP2 SLOAD DUP2 MSTORE SWAP1 PUSH1 0x1 ADD SWAP1 PUSH1 0x20 ADD DUP1 DUP4 GT PUSH2 0x6AF JUMPI DUP3 SWAP1 SUB PUSH1 0x1F AND DUP3 ADD SWAP2 JUMPDEST POP POP POP POP POP SWAP6 POP SWAP8 POP SWAP8 POP SWAP8 POP SWAP8 POP SWAP8 POP SWAP8 POP POP POP SWAP2 SWAP4 SWAP6 POP SWAP2 SWAP4 SWAP6 JUMP JUMPDEST PUSH1 0x0 SLOAD PUSH1 0x1 PUSH1 0x1 PUSH1 0xA0 SHL SUB AND CALLER EQ PUSH2 0x714 JUMPI PUSH1 0x40 MLOAD PUSH3 0x82B429 PUSH1 0xE8 SHL DUP2 MSTORE PUSH1 0x4 ADD PUSH1 0x40 MLOAD DUP1 SWAP2 SUB SWAP1 REVERT JUMPDEST PUSH1 0x0 DUP5 DUP2 MSTORE PUSH1 0x6 PUSH1 0x20 MSTORE PUSH1 0x40 SWAP1 KECCAK256 PUSH1 0x2 ADD SLOAD PUSH3 0x10000 SWAP1 DIV PUSH1 0xFF AND ISZERO PUSH2 0x750 JUMPI PUSH1 0x40 MLOAD PUSH4 0x2E13FAC1 PUSH1 0xE1 SHL DUP2 MSTORE PUSH1 0x4 DUP2 ADD DUP6 SWAP1 MSTORE PUSH1 0x24 ADD PUSH2 0x4BA JUMP JUMPDEST PUSH1 0x0 DUP5 DUP2 MSTORE PUSH1 0x6 PUSH1 0x20 MSTORE PUSH1 0x40 SWAP1 KECCAK256 PUSH2 0x769 DUP4 DUP6 DUP4 PUSH2 0x1977 JUMP JUMPDEST POP PUSH1 0x0 DUP5 DUP2 MSTORE PUSH1 0x6 PUSH1 0x20 MSTORE PUSH1 0x40 DUP2 KECCAK256 PUSH1 0x1 DUP2 ADD DUP4 SWAP1 SSTORE PUSH1 0x2 ADD DUP1 SLOAD PUSH3 0xFF0000 NOT AND PUSH3 0x10000 OR SWAP1 SSTORE PUSH1 0x4 DUP1 SLOAD SWAP2 PUSH2 0x79F DUP4 PUSH2 0x1A4E JUMP JUMPDEST SWAP1 SWAP2 SSTORE POP POP PUSH1 0x8 DUP1 SLOAD PUSH1 0x1 DUP2 ADD DUP3 SSTORE PUSH1 0x0 SWAP2 SWAP1 SWAP2 MSTORE PUSH32 0xF3F7A9FE364FAAB93B216DA50A3214154F22A0A2B415B23A84C8169E8B636EE3 ADD DUP5 SWAP1 SSTORE PUSH1 0x40 MLOAD DUP5 SWAP1 PUSH32 0x4B265E9C67DF76980F0A55E8016E34A525FAF4A1C1004D8F504B097BEB855577 SWAP1 PUSH2 0x80F SWAP1 DUP7 SWAP1 DUP7 SWAP1 DUP7 SWAP1 PUSH2 0x1A67 JUMP JUMPDEST PUSH1 0x40 MLOAD DUP1 SWAP2 SUB SWAP1 LOG2 POP POP POP POP JUMP JUMPDEST PUSH1 0x0 SLOAD PUSH1 0x1 PUSH1 0x1 PUSH1 0xA0 SHL SUB AND CALLER EQ PUSH2 0x847 JUMPI PUSH1 0x40 MLOAD PUSH3 0x82B429 PUSH1 0xE8 SHL DUP2 MSTORE PUSH1 0x4 ADD PUSH1 0x40 MLOAD DUP1 SWAP2 SUB SWAP1 REVERT JUMPDEST PUSH1 0x0 DUP3 DUP2 MSTORE PUSH1 0x5 PUSH1 0x20 MSTORE PUSH1 0x40 SWAP1 KECCAK256 PUSH1 0x2 ADD SLOAD DUP3 SWAP1 PUSH1 0xFF AND PUSH2 0x87E JUMPI PUSH1 0x40 MLOAD PUSH4 0x69899AAF PUSH1 0xE0 SHL DUP2 MSTORE PUSH1 0x4 DUP2 ADD DUP3 SWAP1 MSTORE PUSH1 0x24 ADD PUSH2 0x4BA JUMP JUMPDEST PUSH1 0x0 DUP3 DUP2 MSTORE PUSH1 0x6 PUSH1 0x20 MSTORE PUSH1 0x40 SWAP1 KECCAK256 PUSH1 0x2 ADD SLOAD DUP3 SWAP1 PUSH3 0x10000 SWAP1 DIV PUSH1 0xFF AND PUSH2 0x8BB JUMPI PUSH1 0x40 MLOAD PUSH4 0x152FE259 PUSH1 0xE0 SHL DUP2 MSTORE PUSH1 0x4 DUP2 ADD DUP3 SWAP1 MSTORE PUSH1 0x24 ADD PUSH2 0x4BA JUMP JUMPDEST PUSH1 0x0 DUP4 DUP2 MSTORE PUSH1 0x6 PUSH1 0x20 SWAP1 DUP2 MSTORE PUSH1 0x40 DUP1 DUP4 KECCAK256 DUP8 DUP5 MSTORE PUSH1 0x4 ADD SWAP1 SWAP2 MSTORE SWAP1 KECCAK256 SLOAD PUSH1 0xFF AND ISZERO PUSH2 0x903 JUMPI PUSH1 0x40 MLOAD PUSH4 0xE8F2BED1 PUSH1 0xE0 SHL DUP2 MSTORE PUSH1 0x4 DUP2 ADD DUP6 SWAP1 MSTORE PUSH1 0x24 DUP2 ADD DUP5 SWAP1 MSTORE PUSH1 0x44 ADD PUSH2 0x4BA JUMP JUMPDEST PUSH1 0x0 DUP4 DUP2 MSTORE PUSH1 0x6 PUSH1 0x20 SWAP1 DUP2 MSTORE PUSH1 0x40 DUP1 DUP4 KECCAK256 PUSH1 0x3 DUP1 DUP3 ADD DUP1 SLOAD DUP11 DUP8 MSTORE PUSH1 0x5 DUP1 DUP6 ADD DUP8 MSTORE DUP6 DUP9 KECCAK256 DUP3 SWAP1 SSTORE PUSH1 0x1 DUP1 DUP4 ADD DUP5 SSTORE SWAP3 DUP9 MSTORE DUP7 DUP9 KECCAK256 SWAP1 SWAP2 ADD DUP12 SWAP1 SSTORE DUP11 DUP8 MSTORE PUSH1 0x4 SWAP1 SWAP4 ADD DUP6 MSTORE DUP4 DUP7 KECCAK256 DUP1 SLOAD PUSH1 0xFF NOT AND DUP3 OR SWAP1 SSTORE SWAP2 DUP5 MSTORE DUP3 DUP6 KECCAK256 ADD DUP1 SLOAD SWAP2 DUP3 ADD DUP2 SSTORE DUP5 MSTORE SWAP2 DUP4 KECCAK256 SWAP1 SWAP2 ADD DUP6 SWAP1 SSTORE MLOAD DUP5 SWAP2 DUP7 SWAP2 PUSH32 0xD30B0495C4F5DD9BDD96C689D8564CB151BA2097E5EDE776F6ECCBD81318279A SWAP2 SWAP1 LOG3 POP POP POP POP JUMP JUMPDEST PUSH1 0x7 DUP2 DUP2 SLOAD DUP2 LT PUSH2 0x9AD JUMPI PUSH1 0x0 DUP1 REVERT JUMPDEST PUSH1 0x0 SWAP2 DUP3 MSTORE PUSH1 0x20 SWAP1 SWAP2 KECCAK256 ADD SLOAD SWAP1 POP DUP2 JUMP JUMPDEST PUSH1 0x8 DUP2 DUP2 SLOAD DUP2 LT PUSH2 0x9AD JUMPI PUSH1 0x0 DUP1 REVERT JUMPDEST PUSH1 0x0 SLOAD PUSH1 0x1 PUSH1 0x1 PUSH1 0xA0 SHL SUB AND CALLER EQ PUSH2 0x9F8 JUMPI PUSH1 0x40 MLOAD PUSH3 0x82B429 PUSH1 0xE8 SHL DUP2 MSTORE PUSH1 0x4 ADD PUSH1 0x40 MLOAD DUP1 SWAP2 SUB SWAP1 REVERT JUMPDEST PUSH1 0x0 DUP2 DUP2 MSTORE PUSH1 0x6 PUSH1 0x20 MSTORE PUSH1 0x40 SWAP1 KECCAK256 PUSH1 0x2 ADD SLOAD DUP2 SWAP1 PUSH3 0x10000 SWAP1 DIV PUSH1 0xFF AND PUSH2 0xA35 JUMPI PUSH1 0x40 MLOAD PUSH4 0x152FE259 PUSH1 0xE0 SHL DUP2 MSTORE PUSH1 0x4 DUP2 ADD DUP3 SWAP1 MSTORE PUSH1 0x24 ADD PUSH2 0x4BA JUMP JUMPDEST PUSH1 0x0 DUP3 DUP2 MSTORE PUSH1 0x6 PUSH1 0x20 MSTORE PUSH1 0x40 SWAP1 KECCAK256 PUSH1 0x2 ADD SLOAD PUSH1 0xFF AND ISZERO PUSH2 0xA6B JUMPI PUSH1 0x40 MLOAD PUSH4 0xF9D4E81 PUSH1 0xE1 SHL DUP2 MSTORE PUSH1 0x4 DUP2 ADD DUP4 SWAP1 MSTORE PUSH1 0x24 ADD PUSH2 0x4BA JUMP JUMPDEST PUSH1 0x0 DUP3 DUP2 MSTORE PUSH1 0x6 PUSH1 0x20 MSTORE PUSH1 0x40 SWAP1 DUP2 SWAP1 KECCAK256 PUSH1 0x2 ADD DUP1 SLOAD PUSH1 0xFF NOT AND PUSH1 0x1 OR SWAP1 SSTORE MLOAD CALLER SWAP1 DUP4 SWAP1 PUSH32 0xEC65CE00FB66A37AC771592AC0FCAD21BDD8F02D0A1765EB49C925B4E70C2023 SWAP1 PUSH2 0xABD SWAP1 TIMESTAMP DUP2 MSTORE PUSH1 0x20 ADD SWAP1 JUMP JUMPDEST PUSH1 0x40 MLOAD DUP1 SWAP2 SUB SWAP1 LOG3 POP POP JUMP JUMPDEST PUSH1 0x0 DUP2 DUP2 MSTORE PUSH1 0x6 PUSH1 0x20 MSTORE PUSH1 0x40 DUP2 KECCAK256 PUSH1 0x2 ADD SLOAD DUP3 SWAP1 PUSH3 0x10000 SWAP1 DIV PUSH1 0xFF AND PUSH2 0xB06 JUMPI PUSH1 0x40 MLOAD PUSH4 0x152FE259 PUSH1 0xE0 SHL DUP2 MSTORE PUSH1 0x4 DUP2 ADD DUP3 SWAP1 MSTORE PUSH1 0x24 ADD PUSH2 0x4BA JUMP JUMPDEST PUSH1 0x0 DUP4 DUP2 MSTORE PUSH1 0x6 PUSH1 0x20 SWAP1 DUP2 MSTORE PUSH1 0x40 DUP1 DUP4 KECCAK256 PUSH1 0x3 ADD DUP1 SLOAD DUP3 MLOAD DUP2 DUP6 MUL DUP2 ADD DUP6 ADD SWAP1 SWAP4 MSTORE DUP1 DUP4 MSTORE SWAP2 SWAP3 SWAP1 SWAP2 SWAP1 DUP4 ADD DUP3 DUP3 DUP1 ISZERO PUSH2 0xB5F JUMPI PUSH1 0x20 MUL DUP3 ADD SWAP2 SWAP1 PUSH1 0x0 MSTORE PUSH1 0x20 PUSH1 0x0 KECCAK256 SWAP1 JUMPDEST DUP2 SLOAD DUP2 MSTORE PUSH1 0x20 ADD SWAP1 PUSH1 0x1 ADD SWAP1 DUP1 DUP4 GT PUSH2 0xB4B JUMPI JUMPDEST POP POP POP POP POP SWAP1 POP PUSH1 0x0 DUP2 MLOAD SWAP1 POP DUP1 PUSH1 0x0 SUB PUSH2 0xB7F JUMPI PUSH1 0x0 SWAP4 POP POP POP PUSH2 0x522 JUMP JUMPDEST PUSH1 0x0 DUP1 JUMPDEST DUP3 DUP2 LT ISZERO PUSH2 0xBD9 JUMPI PUSH1 0x0 PUSH1 0x5 PUSH1 0x0 DUP7 DUP5 DUP2 MLOAD DUP2 LT PUSH2 0xBA3 JUMPI PUSH2 0xBA3 PUSH2 0x1AA0 JUMP JUMPDEST PUSH1 0x20 MUL PUSH1 0x20 ADD ADD MLOAD DUP2 MSTORE PUSH1 0x20 ADD SWAP1 DUP2 MSTORE PUSH1 0x20 ADD PUSH1 0x0 KECCAK256 PUSH1 0x1 ADD SLOAD GT ISZERO PUSH2 0xBD1 JUMPI DUP2 PUSH2 0xBCD DUP2 PUSH2 0x1A4E JUMP JUMPDEST SWAP3 POP POP JUMPDEST PUSH1 0x1 ADD PUSH2 0xB83 JUMP JUMPDEST POP DUP2 PUSH2 0xBE7 PUSH2 0x2710 DUP4 PUSH2 0x1AB6 JUMP JUMPDEST PUSH2 0xBF1 SWAP2 SWAP1 PUSH2 0x1ACD JUMP JUMPDEST SWAP7 SWAP6 POP POP POP POP POP POP JUMP JUMPDEST PUSH1 0x0 DUP2 DUP2 MSTORE PUSH1 0x6 PUSH1 0x20 SWAP1 DUP2 MSTORE PUSH1 0x40 DUP1 DUP4 KECCAK256 DUP6 DUP5 MSTORE PUSH1 0x4 ADD SWAP1 SWAP2 MSTORE SWAP1 KECCAK256 SLOAD PUSH1 0xFF AND JUMPDEST SWAP3 SWAP2 POP POP JUMP JUMPDEST PUSH1 0x0 SLOAD PUSH1 0x1 PUSH1 0x1 PUSH1 0xA0 SHL SUB AND CALLER EQ PUSH2 0xC4C JUMPI PUSH1 0x40 MLOAD PUSH3 0x82B429 PUSH1 0xE8 SHL DUP2 MSTORE PUSH1 0x4 ADD PUSH1 0x40 MLOAD DUP1 SWAP2 SUB SWAP1 REVERT JUMPDEST PUSH1 0x0 DUP3 DUP2 MSTORE PUSH1 0x6 PUSH1 0x20 MSTORE PUSH1 0x40 SWAP1 KECCAK256 PUSH1 0x2 ADD SLOAD DUP3 SWAP1 PUSH3 0x10000 SWAP1 DIV PUSH1 0xFF AND PUSH2 0xC89 JUMPI PUSH1 0x40 MLOAD PUSH4 0x152FE259 PUSH1 0xE0 SHL DUP2 MSTORE PUSH1 0x4 DUP2 ADD DUP3 SWAP1 MSTORE PUSH1 0x24 ADD PUSH2 0x4BA JUMP JUMPDEST PUSH1 0x0 DUP4 DUP2 MSTORE PUSH1 0x6 PUSH1 0x20 MSTORE PUSH1 0x40 SWAP1 KECCAK256 PUSH1 0x2 ADD SLOAD PUSH1 0xFF AND PUSH2 0xCBE JUMPI PUSH1 0x40 MLOAD PUSH4 0x152FE259 PUSH1 0xE0 SHL DUP2 MSTORE PUSH1 0x4 DUP2 ADD DUP5 SWAP1 MSTORE PUSH1 0x24 ADD PUSH2 0x4BA JUMP JUMPDEST PUSH2 0x1388 DUP3 GT ISZERO PUSH2 0xCEC JUMPI PUSH1 0x40 MLOAD PUSH4 0x76F5E03D PUSH1 0xE0 SHL DUP2 MSTORE PUSH1 0x4 DUP2 ADD DUP4 SWAP1 MSTORE PUSH2 0x1388 PUSH1 0x24 DUP3 ADD MSTORE PUSH1 0x44 ADD PUSH2 0x4BA JUMP JUMPDEST PUSH1 0x0 DUP4 DUP2 MSTORE PUSH1 0x6 PUSH1 0x20 SWAP1 DUP2 MSTORE PUSH1 0x40 DUP1 DUP4 KECCAK256 PUSH1 0x3 ADD DUP1 SLOAD DUP3 MLOAD DUP2 DUP6 MUL DUP2 ADD DUP6 ADD SWAP1 SWAP4 MSTORE DUP1 DUP4 MSTORE SWAP2 SWAP3 SWAP1 SWAP2 SWAP1 DUP4 ADD DUP3 DUP3 DUP1 ISZERO PUSH2 0xD45 JUMPI PUSH1 0x20 MUL DUP3 ADD SWAP2 SWAP1 PUSH1 0x0 MSTORE PUSH1 0x20 PUSH1 0x0 KECCAK256 SWAP1 JUMPDEST DUP2 SLOAD DUP2 MSTORE PUSH1 0x20 ADD SWAP1 PUSH1 0x1 ADD SWAP1 DUP1 DUP4 GT PUSH2 0xD31 JUMPI JUMPDEST POP POP DUP4 MLOAD SWAP4 SWAP5 POP PUSH1 0x0 SWAP3 POP POP POP JUMPDEST DUP2 DUP2 LT ISZERO PUSH2 0xE99 JUMPI PUSH1 0x0 DUP4 DUP3 DUP2 MLOAD DUP2 LT PUSH2 0xD6F JUMPI PUSH2 0xD6F PUSH2 0x1AA0 JUMP JUMPDEST PUSH1 0x20 SWAP1 DUP2 MUL SWAP2 SWAP1 SWAP2 ADD DUP2 ADD MLOAD PUSH1 0x0 DUP2 DUP2 MSTORE PUSH1 0x5 DUP4 MSTORE PUSH1 0x40 DUP1 DUP3 KECCAK256 DUP12 DUP4 MSTORE PUSH1 0x4 DUP2 ADD SWAP1 SWAP5 MSTORE SWAP1 KECCAK256 SLOAD SWAP1 SWAP3 POP PUSH1 0xFF AND ISZERO PUSH2 0xDA8 JUMPI POP POP PUSH2 0xE91 JUMP JUMPDEST PUSH1 0x1 DUP2 ADD SLOAD DUP2 SLOAD PUSH1 0x0 SWAP2 PUSH2 0xDBB SWAP2 PUSH2 0x1AEF JUMP JUMPDEST SWAP1 POP DUP1 PUSH1 0x0 SUB PUSH2 0xDCD JUMPI POP POP POP PUSH2 0xE91 JUMP JUMPDEST PUSH1 0x0 PUSH2 0x2710 PUSH2 0xDDC DUP11 DUP5 PUSH2 0x1AB6 JUMP JUMPDEST PUSH2 0xDE6 SWAP2 SWAP1 PUSH2 0x1ACD JUMP JUMPDEST SWAP1 POP DUP1 DUP4 PUSH1 0x1 ADD PUSH1 0x0 DUP3 DUP3 SLOAD PUSH2 0xDFC SWAP2 SWAP1 PUSH2 0x1B02 JUMP JUMPDEST SWAP1 SWAP2 SSTORE POP POP PUSH1 0x0 DUP11 DUP2 MSTORE PUSH1 0x4 DUP5 ADD PUSH1 0x20 MSTORE PUSH1 0x40 DUP2 KECCAK256 DUP1 SLOAD PUSH1 0xFF NOT AND PUSH1 0x1 OR SWAP1 SSTORE PUSH1 0x2 DUP1 SLOAD DUP4 SWAP3 SWAP1 PUSH2 0xE2E SWAP1 DUP5 SWAP1 PUSH2 0x1B02 JUMP JUMPDEST SWAP3 POP POP DUP2 SWAP1 SSTORE POP DUP10 DUP5 PUSH32 0x9763637C88B5FC32AEA772C1C273740B11301698154629623E16CDF052D45AC8 DUP4 DUP7 PUSH1 0x1 ADD SLOAD DUP8 PUSH1 0x0 ADD SLOAD PUSH2 0xE6D SWAP2 SWAP1 PUSH2 0x1AEF JUMP JUMPDEST PUSH1 0x40 DUP1 MLOAD SWAP3 DUP4 MSTORE PUSH1 0x20 DUP4 ADD SWAP2 SWAP1 SWAP2 MSTORE TIMESTAMP SWAP1 DUP3 ADD MSTORE PUSH1 0x60 ADD PUSH1 0x40 MLOAD DUP1 SWAP2 SUB SWAP1 LOG3 POP POP POP POP JUMPDEST PUSH1 0x1 ADD PUSH2 0xD53 JUMP JUMPDEST POP PUSH1 0x8 SLOAD PUSH1 0x0 DUP1 JUMPDEST DUP3 DUP2 LT ISZERO PUSH2 0x1076 JUMPI PUSH1 0x0 PUSH1 0x8 DUP3 DUP2 SLOAD DUP2 LT PUSH2 0xEBE JUMPI PUSH2 0xEBE PUSH2 0x1AA0 JUMP JUMPDEST SWAP1 PUSH1 0x0 MSTORE PUSH1 0x20 PUSH1 0x0 KECCAK256 ADD SLOAD SWAP1 POP DUP9 DUP2 SUB PUSH2 0xED8 JUMPI POP PUSH2 0x106E JUMP JUMPDEST PUSH1 0x0 DUP2 DUP2 MSTORE PUSH1 0x6 PUSH1 0x20 MSTORE PUSH1 0x40 SWAP1 KECCAK256 PUSH1 0x2 ADD SLOAD PUSH3 0x10000 SWAP1 DIV PUSH1 0xFF AND PUSH2 0xEFD JUMPI POP PUSH2 0x106E JUMP JUMPDEST PUSH1 0x0 DUP2 DUP2 MSTORE PUSH1 0x6 PUSH1 0x20 SWAP1 DUP2 MSTORE PUSH1 0x40 DUP1 DUP4 KECCAK256 PUSH1 0x3 ADD DUP1 SLOAD DUP3 MLOAD DUP2 DUP6 MUL DUP2 ADD DUP6 ADD SWAP1 SWAP4 MSTORE DUP1 DUP4 MSTORE SWAP2 SWAP3 SWAP1 SWAP2 SWAP1 DUP4 ADD DUP3 DUP3 DUP1 ISZERO PUSH2 0xF56 JUMPI PUSH1 0x20 MUL DUP3 ADD SWAP2 SWAP1 PUSH1 0x0 MSTORE PUSH1 0x20 PUSH1 0x0 KECCAK256 SWAP1 JUMPDEST DUP2 SLOAD DUP2 MSTORE PUSH1 0x20 ADD SWAP1 PUSH1 0x1 ADD SWAP1 DUP1 DUP4 GT PUSH2 0xF42 JUMPI JUMPDEST POP POP POP POP POP SWAP1 POP PUSH1 0x0 DUP2 MLOAD SWAP1 POP DUP1 PUSH1 0x0 SUB PUSH2 0xF73 JUMPI POP POP POP PUSH2 0x106E JUMP JUMPDEST PUSH1 0x0 DUP1 JUMPDEST DUP3 DUP2 LT ISZERO PUSH2 0xFCD JUMPI PUSH1 0x0 PUSH1 0x5 PUSH1 0x0 DUP7 DUP5 DUP2 MLOAD DUP2 LT PUSH2 0xF97 JUMPI PUSH2 0xF97 PUSH2 0x1AA0 JUMP JUMPDEST PUSH1 0x20 MUL PUSH1 0x20 ADD ADD MLOAD DUP2 MSTORE PUSH1 0x20 ADD SWAP1 DUP2 MSTORE PUSH1 0x20 ADD PUSH1 0x0 KECCAK256 PUSH1 0x1 ADD SLOAD GT ISZERO PUSH2 0xFC5 JUMPI DUP2 PUSH2 0xFC1 DUP2 PUSH2 0x1A4E JUMP JUMPDEST SWAP3 POP POP JUMPDEST PUSH1 0x1 ADD PUSH2 0xF77 JUMP JUMPDEST POP PUSH1 0x0 DUP3 PUSH2 0xFDD PUSH2 0x2710 DUP5 PUSH2 0x1AB6 JUMP JUMPDEST PUSH2 0xFE7 SWAP2 SWAP1 PUSH2 0x1ACD JUMP JUMPDEST SWAP1 POP PUSH2 0x1388 DUP2 LT PUSH2 0x1068 JUMPI PUSH1 0x0 DUP6 DUP2 MSTORE PUSH1 0x6 PUSH1 0x20 MSTORE PUSH1 0x40 SWAP1 KECCAK256 PUSH1 0x2 ADD DUP1 SLOAD PUSH2 0xFF00 NOT AND PUSH2 0x100 OR SWAP1 SSTORE DUP7 PUSH2 0x101A DUP2 PUSH2 0x1A4E JUMP JUMPDEST PUSH1 0x40 DUP1 MLOAD DUP6 DUP2 MSTORE PUSH1 0x20 DUP2 ADD DUP8 SWAP1 MSTORE SWAP1 DUP2 ADD DUP5 SWAP1 MSTORE TIMESTAMP PUSH1 0x60 DUP3 ADD MSTORE SWAP1 SWAP9 POP DUP7 SWAP2 POP PUSH32 0xC824ADF9EA2251E9841EA40E4EDEECA31B07972DA933F89CE85D88100390DB58 SWAP1 PUSH1 0x80 ADD PUSH1 0x40 MLOAD DUP1 SWAP2 SUB SWAP1 LOG2 JUMPDEST POP POP POP POP POP JUMPDEST PUSH1 0x1 ADD PUSH2 0xEA1 JUMP JUMPDEST POP PUSH2 0x1080 DUP2 PUSH2 0x162C JUMP JUMPDEST POP POP POP POP POP POP POP JUMP JUMPDEST PUSH1 0x0 SLOAD PUSH1 0x1 PUSH1 0x1 PUSH1 0xA0 SHL SUB AND CALLER EQ PUSH2 0x10B3 JUMPI PUSH1 0x40 MLOAD PUSH3 0x82B429 PUSH1 0xE8 SHL DUP2 MSTORE PUSH1 0x4 ADD PUSH1 0x40 MLOAD DUP1 SWAP2 SUB SWAP1 REVERT JUMPDEST PUSH1 0x0 DUP3 DUP2 MSTORE PUSH1 0x5 PUSH1 0x20 MSTORE PUSH1 0x40 SWAP1 KECCAK256 PUSH1 0x2 ADD SLOAD PUSH1 0xFF AND ISZERO PUSH2 0x10E9 JUMPI PUSH1 0x40 MLOAD PUSH4 0x38A14A41 PUSH1 0xE0 SHL DUP2 MSTORE PUSH1 0x4 DUP2 ADD DUP4 SWAP1 MSTORE PUSH1 0x24 ADD PUSH2 0x4BA JUMP JUMPDEST DUP1 PUSH1 0x0 SUB PUSH2 0x110A JUMPI PUSH1 0x40 MLOAD PUSH4 0x150A67E9 PUSH1 0xE0 SHL DUP2 MSTORE PUSH1 0x4 ADD PUSH1 0x40 MLOAD DUP1 SWAP2 SUB SWAP1 REVERT JUMPDEST PUSH1 0x0 DUP3 DUP2 MSTORE PUSH1 0x5 PUSH1 0x20 MSTORE PUSH1 0x40 DUP2 KECCAK256 DUP3 DUP2 SSTORE PUSH1 0x2 ADD DUP1 SLOAD PUSH1 0xFF NOT AND PUSH1 0x1 SWAP1 DUP2 OR SWAP1 SWAP2 SSTORE DUP1 SLOAD DUP4 SWAP3 SWAP1 PUSH2 0x113C SWAP1 DUP5 SWAP1 PUSH2 0x1B02 JUMP JUMPDEST SWAP1 SWAP2 SSTORE POP POP PUSH1 0x7 DUP1 SLOAD PUSH1 0x1 DUP2 ADD DUP3 SSTORE PUSH1 0x0 SWAP2 SWAP1 SWAP2 MSTORE PUSH32 0xA66CC928B5EDB82AF9BD49922954155AB7B0942694BEA4CE44661D9A8736C688 ADD DUP3 SWAP1 SSTORE PUSH1 0x40 MLOAD DUP2 DUP2 MSTORE DUP3 SWAP1 PUSH32 0xD70BFAEC5018306AD990042454EC4743575A7AACB7F55BBFA563E7C4F2601196 SWAP1 PUSH1 0x20 ADD PUSH1 0x40 MLOAD DUP1 SWAP2 SUB SWAP1 LOG2 POP POP JUMP JUMPDEST PUSH1 0x60 PUSH1 0x7 DUP1 SLOAD DUP1 PUSH1 0x20 MUL PUSH1 0x20 ADD PUSH1 0x40 MLOAD SWAP1 DUP2 ADD PUSH1 0x40 MSTORE DUP1 SWAP3 SWAP2 SWAP1 DUP2 DUP2 MSTORE PUSH1 0x20 ADD DUP3 DUP1 SLOAD DUP1 ISZERO PUSH2 0x474 JUMPI PUSH1 0x20 MUL DUP3 ADD SWAP2 SWAP1 PUSH1 0x0 MSTORE PUSH1 0x20 PUSH1 0x0 KECCAK256 SWAP1 DUP2 SLOAD DUP2 MSTORE PUSH1 0x20 ADD SWAP1 PUSH1 0x1 ADD SWAP1 DUP1 DUP4 GT PUSH2 0x460 JUMPI POP POP POP POP POP SWAP1 POP SWAP1 JUMP JUMPDEST PUSH1 0x0 DUP2 DUP2 MSTORE PUSH1 0x5 PUSH1 0x20 MSTORE PUSH1 0x40 DUP2 KECCAK256 PUSH1 0x2 ADD SLOAD DUP2 SWAP1 DUP2 SWAP1 DUP2 SWAP1 DUP2 SWAP1 DUP7 SWAP1 PUSH1 0xFF AND PUSH2 0x1244 JUMPI PUSH1 0x40 MLOAD PUSH4 0x69899AAF PUSH1 0xE0 SHL DUP2 MSTORE PUSH1 0x4 DUP2 ADD DUP3 SWAP1 MSTORE PUSH1 0x24 ADD PUSH2 0x4BA JUMP JUMPDEST PUSH1 0x0 DUP8 DUP2 MSTORE PUSH1 0x5 PUSH1 0x20 MSTORE PUSH1 0x40 SWAP1 KECCAK256 DUP1 SLOAD PUSH1 0x1 DUP3 ADD SLOAD PUSH2 0x1263 DUP2 DUP4 PUSH2 0x1AEF JUMP JUMPDEST PUSH1 0x3 DUP5 ADD SLOAD PUSH1 0x2 SWAP1 SWAP5 ADD SLOAD SWAP3 SWAP12 SWAP2 SWAP11 POP SWAP9 POP SWAP2 SWAP7 POP PUSH1 0xFF AND SWAP5 POP SWAP3 POP POP POP JUMP JUMPDEST PUSH1 0x0 SLOAD PUSH1 0x1 PUSH1 0x1 PUSH1 0xA0 SHL SUB AND CALLER EQ PUSH2 0x12AD JUMPI PUSH1 0x40 MLOAD PUSH3 0x82B429 PUSH1 0xE8 SHL DUP2 MSTORE PUSH1 0x4 ADD PUSH1 0x40 MLOAD DUP1 SWAP2 SUB SWAP1 REVERT JUMPDEST PUSH1 0x0 DUP3 DUP2 MSTORE PUSH1 0x5 PUSH1 0x20 MSTORE PUSH1 0x40 SWAP1 KECCAK256 PUSH1 0x2 ADD SLOAD DUP3 SWAP1 PUSH1 0xFF AND PUSH2 0x12E4 JUMPI PUSH1 0x40 MLOAD PUSH4 0x69899AAF PUSH1 0xE0 SHL DUP2 MSTORE PUSH1 0x4 DUP2 ADD DUP3 SWAP1 MSTORE PUSH1 0x24 ADD PUSH2 0x4BA JUMP JUMPDEST PUSH1 0x0 DUP3 DUP2 MSTORE PUSH1 0x6 PUSH1 0x20 MSTORE PUSH1 0x40 SWAP1 KECCAK256 PUSH1 0x2 ADD SLOAD DUP3 SWAP1 PUSH3 0x10000 SWAP1 DIV PUSH1 0xFF AND PUSH2 0x1321 JUMPI PUSH1 0x40 MLOAD PUSH4 0x152FE259 PUSH1 0xE0 SHL DUP2 MSTORE PUSH1 0x4 DUP2 ADD DUP3 SWAP1 MSTORE PUSH1 0x24 ADD PUSH2 0x4BA JUMP JUMPDEST PUSH1 0x0 DUP4 DUP2 MSTORE PUSH1 0x6 PUSH1 0x20 SWAP1 DUP2 MSTORE PUSH1 0x40 DUP1 DUP4 KECCAK256 DUP8 DUP5 MSTORE PUSH1 0x4 ADD SWAP1 SWAP2 MSTORE SWAP1 KECCAK256 SLOAD PUSH1 0xFF AND PUSH2 0x1368 JUMPI PUSH1 0x40 MLOAD PUSH4 0xD698A00F PUSH1 0xE0 SHL DUP2 MSTORE PUSH1 0x4 DUP2 ADD DUP6 SWAP1 MSTORE PUSH1 0x24 DUP2 ADD DUP5 SWAP1 MSTORE PUSH1 0x44 ADD PUSH2 0x4BA JUMP JUMPDEST PUSH1 0x0 DUP4 DUP2 MSTORE PUSH1 0x6 PUSH1 0x20 DUP2 DUP2 MSTORE PUSH1 0x40 DUP1 DUP5 KECCAK256 DUP9 DUP6 MSTORE PUSH1 0x5 DUP2 ADD DUP4 MSTORE SWAP1 DUP5 KECCAK256 SLOAD DUP8 DUP6 MSTORE SWAP3 SWAP1 SWAP2 MSTORE PUSH1 0x3 ADD SLOAD SWAP1 SWAP2 SWAP1 PUSH2 0x13A0 SWAP1 PUSH1 0x1 SWAP1 PUSH2 0x1AEF JUMP JUMPDEST SWAP1 POP DUP1 DUP3 EQ PUSH2 0x142E JUMPI PUSH1 0x0 DUP6 DUP2 MSTORE PUSH1 0x6 PUSH1 0x20 MSTORE PUSH1 0x40 DUP2 KECCAK256 PUSH1 0x3 ADD DUP1 SLOAD DUP4 SWAP1 DUP2 LT PUSH2 0x13CC JUMPI PUSH2 0x13CC PUSH2 0x1AA0 JUMP JUMPDEST SWAP1 PUSH1 0x0 MSTORE PUSH1 0x20 PUSH1 0x0 KECCAK256 ADD SLOAD SWAP1 POP DUP1 PUSH1 0x6 PUSH1 0x0 DUP9 DUP2 MSTORE PUSH1 0x20 ADD SWAP1 DUP2 MSTORE PUSH1 0x20 ADD PUSH1 0x0 KECCAK256 PUSH1 0x3 ADD DUP5 DUP2 SLOAD DUP2 LT PUSH2 0x1401 JUMPI PUSH2 0x1401 PUSH2 0x1AA0 JUMP JUMPDEST PUSH1 0x0 SWAP2 DUP3 MSTORE PUSH1 0x20 DUP1 DUP4 KECCAK256 SWAP1 SWAP2 ADD SWAP3 SWAP1 SWAP3 SSTORE DUP8 DUP2 MSTORE PUSH1 0x6 DUP3 MSTORE PUSH1 0x40 DUP1 DUP3 KECCAK256 SWAP4 DUP3 MSTORE PUSH1 0x5 SWAP1 SWAP4 ADD SWAP1 SWAP2 MSTORE KECCAK256 DUP3 SWAP1 SSTORE JUMPDEST PUSH1 0x0 DUP6 DUP2 MSTORE PUSH1 0x6 PUSH1 0x20 MSTORE PUSH1 0x40 SWAP1 KECCAK256 PUSH1 0x3 ADD DUP1 SLOAD DUP1 PUSH2 0x144E JUMPI PUSH2 0x144E PUSH2 0x1B15 JUMP JUMPDEST PUSH1 0x0 DUP3 DUP2 MSTORE PUSH1 0x20 DUP1 DUP3 KECCAK256 PUSH1 0x0 NOT SWAP1 DUP5 ADD DUP2 ADD DUP4 SWAP1 SSTORE SWAP1 SWAP3 ADD SWAP1 SWAP3 SSTORE DUP7 DUP3 MSTORE PUSH1 0x6 DUP2 MSTORE PUSH1 0x40 DUP1 DUP4 KECCAK256 DUP10 DUP5 MSTORE PUSH1 0x4 DUP2 ADD DUP4 MSTORE DUP2 DUP5 KECCAK256 DUP1 SLOAD PUSH1 0xFF NOT AND SWAP1 SSTORE PUSH1 0x5 SWAP1 DUP2 ADD DUP4 MSTORE DUP2 DUP5 KECCAK256 DUP5 SWAP1 SSTORE SWAP1 SWAP2 MSTORE DUP2 KECCAK256 PUSH1 0x3 ADD SWAP1 JUMPDEST DUP2 SLOAD DUP2 LT ISZERO PUSH2 0x154A JUMPI DUP7 DUP3 DUP3 DUP2 SLOAD DUP2 LT PUSH2 0x14BC JUMPI PUSH2 0x14BC PUSH2 0x1AA0 JUMP JUMPDEST SWAP1 PUSH1 0x0 MSTORE PUSH1 0x20 PUSH1 0x0 KECCAK256 ADD SLOAD SUB PUSH2 0x1542 JUMPI DUP2 SLOAD DUP3 SWAP1 PUSH2 0x14DC SWAP1 PUSH1 0x1 SWAP1 PUSH2 0x1AEF JUMP JUMPDEST DUP2 SLOAD DUP2 LT PUSH2 0x14EC JUMPI PUSH2 0x14EC PUSH2 0x1AA0 JUMP JUMPDEST SWAP1 PUSH1 0x0 MSTORE PUSH1 0x20 PUSH1 0x0 KECCAK256 ADD SLOAD DUP3 DUP3 DUP2 SLOAD DUP2 LT PUSH2 0x1509 JUMPI PUSH2 0x1509 PUSH2 0x1AA0 JUMP JUMPDEST SWAP1 PUSH1 0x0 MSTORE PUSH1 0x20 PUSH1 0x0 KECCAK256 ADD DUP2 SWAP1 SSTORE POP DUP2 DUP1 SLOAD DUP1 PUSH2 0x1527 JUMPI PUSH2 0x1527 PUSH2 0x1B15 JUMP JUMPDEST PUSH1 0x1 SWAP1 SUB DUP2 DUP2 SWAP1 PUSH1 0x0 MSTORE PUSH1 0x20 PUSH1 0x0 KECCAK256 ADD PUSH1 0x0 SWAP1 SSTORE SWAP1 SSTORE PUSH2 0x154A JUMP JUMPDEST PUSH1 0x1 ADD PUSH2 0x14A0 JUMP JUMPDEST POP PUSH1 0x40 MLOAD DUP7 SWAP1 DUP9 SWAP1 PUSH32 0x4F77C65010208E32E4797A23B748046DE00DA809A1487C62A0C40A8DDDBD11EE SWAP1 PUSH1 0x0 SWAP1 LOG3 POP POP POP POP POP POP POP JUMP JUMPDEST PUSH1 0x0 SLOAD PUSH1 0x1 PUSH1 0x1 PUSH1 0xA0 SHL SUB AND CALLER EQ PUSH2 0x15AB JUMPI PUSH1 0x40 MLOAD PUSH3 0x82B429 PUSH1 0xE8 SHL DUP2 MSTORE PUSH1 0x4 ADD PUSH1 0x40 MLOAD DUP1 SWAP2 SUB SWAP1 REVERT JUMPDEST PUSH1 0x1 PUSH1 0x1 PUSH1 0xA0 SHL SUB DUP2 AND PUSH2 0x15D1 JUMPI PUSH1 0x40 MLOAD PUSH3 0x82B429 PUSH1 0xE8 SHL DUP2 MSTORE PUSH1 0x4 ADD PUSH1 0x40 MLOAD DUP1 SWAP2 SUB SWAP1 REVERT JUMPDEST PUSH1 0x0 DUP1 SLOAD PUSH1 0x40 MLOAD PUSH1 0x1 PUSH1 0x1 PUSH1 0xA0 SHL SUB DUP1 DUP6 AND SWAP4 SWAP3 AND SWAP2 PUSH32 0x8BE0079C531659141344CD1FD0A4F28419497F9722A3DAAFE3B4186F6B6457E0 SWAP2 LOG3 PUSH1 0x0 DUP1 SLOAD PUSH1 0x1 PUSH1 0x1 PUSH1 0xA0 SHL SUB NOT AND PUSH1 0x1 PUSH1 0x1 PUSH1 0xA0 SHL SUB SWAP3 SWAP1 SWAP3 AND SWAP2 SWAP1 SWAP2 OR SWAP1 SSTORE JUMP JUMPDEST PUSH1 0x1 SLOAD PUSH1 0x0 SUB PUSH2 0x163E JUMPI POP PUSH1 0x0 PUSH1 0x3 SSTORE JUMP JUMPDEST PUSH1 0x0 PUSH1 0x1 PUSH1 0x4 SLOAD GT PUSH2 0x1651 JUMPI PUSH1 0x1 PUSH2 0x1660 JUMP JUMPDEST PUSH1 0x1 PUSH1 0x4 SLOAD PUSH2 0x1660 SWAP2 SWAP1 PUSH2 0x1AEF JUMP JUMPDEST SWAP1 POP PUSH1 0x0 PUSH1 0x1 SLOAD PUSH1 0x37 PUSH1 0x2 SLOAD PUSH2 0x1676 SWAP2 SWAP1 PUSH2 0x1AB6 JUMP JUMPDEST PUSH2 0x1681 SWAP1 PUSH1 0x64 PUSH2 0x1AB6 JUMP JUMPDEST PUSH2 0x168B SWAP2 SWAP1 PUSH2 0x1ACD JUMP JUMPDEST SWAP1 POP PUSH1 0x0 DUP3 PUSH2 0x169B PUSH1 0x2D DUP7 PUSH2 0x1AB6 JUMP JUMPDEST PUSH2 0x16A6 SWAP1 PUSH1 0x64 PUSH2 0x1AB6 JUMP JUMPDEST PUSH2 0x16B0 SWAP2 SWAP1 PUSH2 0x1ACD JUMP JUMPDEST SWAP1 POP PUSH1 0x0 PUSH1 0x64 PUSH2 0x16C0 DUP4 DUP6 PUSH2 0x1B02 JUMP JUMPDEST PUSH2 0x16CA SWAP2 SWAP1 PUSH2 0x1ACD JUMP JUMPDEST SWAP1 POP PUSH1 0x63 DUP2 GT ISZERO PUSH2 0x16D9 JUMPI POP PUSH1 0x63 JUMPDEST PUSH1 0x3 DUP2 SWAP1 SSTORE PUSH1 0x2 SLOAD PUSH1 0x1 SLOAD PUSH1 0x40 DUP1 MLOAD DUP5 DUP2 MSTORE PUSH1 0x20 DUP2 ADD SWAP4 SWAP1 SWAP4 MSTORE DUP3 ADD MSTORE TIMESTAMP PUSH1 0x60 DUP3 ADD MSTORE PUSH32 0xCC94640C467789AE6449BEF07E54D9B4D49015124CA2A99F5CD21150ED56AFE2 SWAP1 PUSH1 0x80 ADD PUSH1 0x40 MLOAD DUP1 SWAP2 SUB SWAP1 LOG1 POP POP POP POP POP JUMP JUMPDEST PUSH1 0x20 DUP1 DUP3 MSTORE DUP3 MLOAD DUP3 DUP3 ADD DUP2 SWAP1 MSTORE PUSH1 0x0 SWAP2 SWAP1 DUP5 DUP3 ADD SWAP1 PUSH1 0x40 DUP6 ADD SWAP1 DUP5 JUMPDEST DUP2 DUP2 LT ISZERO PUSH2 0x1768 JUMPI DUP4 MLOAD DUP4 MSTORE SWAP3 DUP5 ADD SWAP3 SWAP2 DUP5 ADD SWAP2 PUSH1 0x1 ADD PUSH2 0x174C JUMP JUMPDEST POP SWAP1 SWAP7 SWAP6 POP POP POP POP POP POP JUMP JUMPDEST PUSH1 0x0 PUSH1 0x20 DUP3 DUP5 SUB SLT ISZERO PUSH2 0x1786 JUMPI PUSH1 0x0 DUP1 REVERT JUMPDEST POP CALLDATALOAD SWAP2 SWAP1 POP JUMP JUMPDEST PUSH1 0xC0 DUP2 MSTORE PUSH1 0x0 DUP8 MLOAD DUP1 PUSH1 0xC0 DUP5 ADD MSTORE PUSH1 0x0 JUMPDEST DUP2 DUP2 LT ISZERO PUSH2 0x17BB JUMPI PUSH1 0x20 DUP2 DUP12 ADD DUP2 ADD MLOAD PUSH1 0xE0 DUP7 DUP5 ADD ADD MSTORE ADD PUSH2 0x179E JUMP JUMPDEST POP PUSH1 0x0 PUSH1 0xE0 DUP3 DUP6 ADD ADD MSTORE PUSH1 0xE0 PUSH1 0x1F NOT PUSH1 0x1F DUP4 ADD AND DUP5 ADD ADD SWAP2 POP POP DUP7 PUSH1 0x20 DUP4 ADD MSTORE DUP6 PUSH1 0x40 DUP4 ADD MSTORE PUSH2 0x17EF PUSH1 0x60 DUP4 ADD DUP7 ISZERO ISZERO SWAP1 MSTORE JUMP JUMPDEST SWAP3 ISZERO ISZERO PUSH1 0x80 DUP3 ADD MSTORE SWAP1 ISZERO ISZERO PUSH1 0xA0 SWAP1 SWAP2 ADD MSTORE SWAP5 SWAP4 POP POP POP POP JUMP JUMPDEST PUSH1 0x0 DUP1 PUSH1 0x0 DUP1 PUSH1 0x60 DUP6 DUP8 SUB SLT ISZERO PUSH2 0x181E JUMPI PUSH1 0x0 DUP1 REVERT JUMPDEST DUP5 CALLDATALOAD SWAP4 POP PUSH1 0x20 DUP6 ADD CALLDATALOAD PUSH8 0xFFFFFFFFFFFFFFFF DUP1 DUP3 GT ISZERO PUSH2 0x183D JUMPI PUSH1 0x0 DUP1 REVERT JUMPDEST DUP2 DUP8 ADD SWAP2 POP DUP8 PUSH1 0x1F DUP4 ADD SLT PUSH2 0x1851 JUMPI PUSH1 0x0 DUP1 REVERT JUMPDEST DUP2 CALLDATALOAD DUP2 DUP2 GT ISZERO PUSH2 0x1860 JUMPI PUSH1 0x0 DUP1 REVERT JUMPDEST DUP9 PUSH1 0x20 DUP3 DUP6 ADD ADD GT ISZERO PUSH2 0x1872 JUMPI PUSH1 0x0 DUP1 REVERT JUMPDEST SWAP6 SWAP9 PUSH1 0x20 SWAP3 SWAP1 SWAP3 ADD SWAP8 POP SWAP5 SWAP6 PUSH1 0x40 ADD CALLDATALOAD SWAP5 POP SWAP3 POP POP POP JUMP JUMPDEST PUSH1 0x0 DUP1 PUSH1 0x40 DUP4 DUP6 SUB SLT ISZERO PUSH2 0x189D JUMPI PUSH1 0x0 DUP1 REVERT JUMPDEST POP POP DUP1 CALLDATALOAD SWAP3 PUSH1 0x20 SWAP1 SWAP2 ADD CALLDATALOAD SWAP2 POP JUMP JUMPDEST PUSH1 0x0 PUSH1 0x20 DUP3 DUP5 SUB SLT ISZERO PUSH2 0x18BE JUMPI PUSH1 0x0 DUP1 REVERT JUMPDEST DUP2 CALLDATALOAD PUSH1 0x1 PUSH1 0x1 PUSH1 0xA0 SHL SUB DUP2 AND DUP2 EQ PUSH2 0x18D5 JUMPI PUSH1 0x0 DUP1 REVERT JUMPDEST SWAP4 SWAP3 POP POP POP JUMP JUMPDEST PUSH1 0x1 DUP2 DUP2 SHR SWAP1 DUP3 AND DUP1 PUSH2 0x18F0 JUMPI PUSH1 0x7F DUP3 AND SWAP2 POP JUMPDEST PUSH1 0x20 DUP3 LT DUP2 SUB PUSH2 0x522 JUMPI PUSH4 0x4E487B71 PUSH1 0xE0 SHL PUSH1 0x0 MSTORE PUSH1 0x22 PUSH1 0x4 MSTORE PUSH1 0x24 PUSH1 0x0 REVERT JUMPDEST PUSH4 0x4E487B71 PUSH1 0xE0 SHL PUSH1 0x0 MSTORE PUSH1 0x41 PUSH1 0x4 MSTORE PUSH1 0x24 PUSH1 0x0 REVERT JUMPDEST PUSH1 0x1F DUP3 GT ISZERO PUSH2 0x1972 JUMPI PUSH1 0x0 DUP2 PUSH1 0x0 MSTORE PUSH1 0x20 PUSH1 0x0 KECCAK256 PUSH1 0x1F DUP6 ADD PUSH1 0x5 SHR DUP2 ADD PUSH1 0x20 DUP7 LT ISZERO PUSH2 0x194F JUMPI POP DUP1 JUMPDEST PUSH1 0x1F DUP6 ADD PUSH1 0x5 SHR DUP3 ADD SWAP2 POP JUMPDEST DUP2 DUP2 LT ISZERO PUSH2 0x196E JUMPI DUP3 DUP2 SSTORE PUSH1 0x1 ADD PUSH2 0x195B JUMP JUMPDEST POP POP POP JUMPDEST POP POP POP JUMP JUMPDEST PUSH8 0xFFFFFFFFFFFFFFFF DUP4 GT ISZERO PUSH2 0x198F JUMPI PUSH2 0x198F PUSH2 0x1910 JUMP JUMPDEST PUSH2 0x19A3 DUP4 PUSH2 0x199D DUP4 SLOAD PUSH2 0x18DC JUMP JUMPDEST DUP4 PUSH2 0x1926 JUMP JUMPDEST PUSH1 0x0 PUSH1 0x1F DUP5 GT PUSH1 0x1 DUP2 EQ PUSH2 0x19D7 JUMPI PUSH1 0x0 DUP6 ISZERO PUSH2 0x19BF JUMPI POP DUP4 DUP3 ADD CALLDATALOAD JUMPDEST PUSH1 0x0 NOT PUSH1 0x3 DUP8 SWAP1 SHL SHR NOT AND PUSH1 0x1 DUP7 SWAP1 SHL OR DUP4 SSTORE PUSH2 0x1A31 JUMP JUMPDEST PUSH1 0x0 DUP4 DUP2 MSTORE PUSH1 0x20 SWAP1 KECCAK256 PUSH1 0x1F NOT DUP7 AND SWAP1 DUP4 JUMPDEST DUP3 DUP2 LT ISZERO PUSH2 0x1A08 JUMPI DUP7 DUP6 ADD CALLDATALOAD DUP3 SSTORE PUSH1 0x20 SWAP5 DUP6 ADD SWAP5 PUSH1 0x1 SWAP1 SWAP3 ADD SWAP2 ADD PUSH2 0x19E8 JUMP JUMPDEST POP DUP7 DUP3 LT ISZERO PUSH2 0x1A25 JUMPI PUSH1 0x0 NOT PUSH1 0xF8 DUP9 PUSH1 0x3 SHL AND SHR NOT DUP5 DUP8 ADD CALLDATALOAD AND DUP2 SSTORE JUMPDEST POP POP PUSH1 0x1 DUP6 PUSH1 0x1 SHL ADD DUP4 SSTORE JUMPDEST POP POP POP POP POP JUMP JUMPDEST PUSH4 0x4E487B71 PUSH1 0xE0 SHL PUSH1 0x0 MSTORE PUSH1 0x11 PUSH1 0x4 MSTORE PUSH1 0x24 PUSH1 0x0 REVERT JUMPDEST PUSH1 0x0 PUSH1 0x1 DUP3 ADD PUSH2 0x1A60 JUMPI PUSH2 0x1A60 PUSH2 0x1A38 JUMP JUMPDEST POP PUSH1 0x1 ADD SWAP1 JUMP JUMPDEST PUSH1 0x40 DUP2 MSTORE DUP3 PUSH1 0x40 DUP3 ADD MSTORE DUP3 DUP5 PUSH1 0x60 DUP4 ADD CALLDATACOPY PUSH1 0x0 PUSH1 0x60 DUP5 DUP4 ADD ADD MSTORE PUSH1 0x0 PUSH1 0x60 PUSH1 0x1F NOT PUSH1 0x1F DUP7 ADD AND DUP4 ADD ADD SWAP1 POP DUP3 PUSH1 0x20 DUP4 ADD MSTORE SWAP5 SWAP4 POP POP POP POP JUMP JUMPDEST PUSH4 0x4E487B71 PUSH1 0xE0 SHL PUSH1 0x0 MSTORE PUSH1 0x32 PUSH1 0x4 MSTORE PUSH1 0x24 PUSH1 0x0 REVERT JUMPDEST DUP1 DUP3 MUL DUP2 ISZERO DUP3 DUP3 DIV DUP5 EQ OR PUSH2 0xC1C JUMPI PUSH2 0xC1C PUSH2 0x1A38 JUMP JUMPDEST PUSH1 0x0 DUP3 PUSH2 0x1AEA JUMPI PUSH4 0x4E487B71 PUSH1 0xE0 SHL PUSH1 0x0 MSTORE PUSH1 0x12 PUSH1 0x4 MSTORE PUSH1 0x24 PUSH1 0x0 REVERT JUMPDEST POP DIV SWAP1 JUMP JUMPDEST DUP2 DUP2 SUB DUP2 DUP2 GT ISZERO PUSH2 0xC1C JUMPI PUSH2 0xC1C PUSH2 0x1A38 JUMP JUMPDEST DUP1 DUP3 ADD DUP1 DUP3 GT ISZERO PUSH2 0xC1C JUMPI PUSH2 0xC1C PUSH2 0x1A38 JUMP JUMPDEST PUSH4 0x4E487B71 PUSH1 0xE0 SHL PUSH1 0x0 MSTORE PUSH1 0x31 PUSH1 0x4 MSTORE PUSH1 0x24 PUSH1 0x0 REVERT INVALID LOG2 PUSH5 0x6970667358 0x22 SLT KECCAK256 0xE2 PUSH29 0x843AEBC29C220FAE1A441CB9341EAD58586EE7DD69F0081415F99A6B8E CALL PUSH5 0x736F6C6343 STOP ADDMOD XOR STOP CALLER "},"methodIdentifiers":{"BPS_DENOMINATOR()":"e1a45218","CASCADE_RISK_WEIGHT()":"c0b1d834","CASCADE_THRESHOLD_BPS()":"64a26a98","MAX_SLASH_BPS()":"31440f55","PRIMARY_RISK_WEIGHT()":"8505ff1a","allAvsIds(uint256)":"4520f332","allValidatorIds(uint256)":"43d6f612","allocateValidator(bytes32,bytes32)":"37924836","avsCount()":"3f9eb071","deallocateValidator(bytes32,bytes32)":"d8c29942","executeSlashing(bytes32,uint256)":"82596a4b","getAVS(bytes32)":"15c45f1b","getAVSValidators(bytes32)":"14e357b4","getAllAvsIds()":"055036fa","getAllValidatorIds()":"b6ed1013","getCascadeRisk(bytes32)":"535f1a82","getNetworkRiskScore()":"a69145d8","getNetworkSnapshot()":"a6931e6d","getValidator(bytes32)":"d5f20ff6","getValidatorServices(bytes32)":"1543d84a","isAllocated(bytes32,bytes32)":"541d9e21","networkRiskScore()":"2b672e9f","owner()":"8da5cb5b","registerAVS(bytes32,string,uint256)":"2cd5f89f","registerValidator(bytes32,uint256)":"94384323","reportByzantine(bytes32)":"45e0d1fd","totalNetworkStake()":"5a2a5b9a","totalSlashedStake()":"5fab23a8","transferOwnership(address)":"f2fde38b"}}}}}